:03000000020800F3
:0C080000787FE4F6D8FD75810A020847F5
:1009AD00C0F9A4B0999282F880908880C6C0868ED6
:0209BD00BF7FFA
:0909E500010800010900010A00EB
:10090900EF24FB601314601914601F24037023E59E
:10091900A0541F4480F5A022E5A0541F44A0F5A0CF
:1009290022E5A0541F44C0F5A022E5A0541F44E0CD
:03093900F5A02204
:10098F00AE077F06120909AF05A807740108800298
:0E099F00C333D8FCF5807F071209098E802231
:10093C0075F00A8493FF1D12098F7FF47E01120952
:0F094C005B9009BDE41D93FF12098F7FF47E01BC
:0B095B00EF1FAC0670011E4C70F6226E
:10088C00E50A75F00A84E5F09009AD7D071209526E
:10089C00E50A12093CE50975F00A84E5F09009AD0A
:1008AC00120951E50912093CE50875F00A84E5F0D6
:1008BC009009AD120951E50875F00A8493FF1D12D9
:0908CC00098F7FF47E0102095B33
:1009BF00758901758C3C758AAFD2A9D2AFD28C22C2
:03000B0002096681
:10096600C0E0758C3C758AAF050AE50A6414700E02
:100976000509F50AE509643C70040508F509E5086A
:0909860064637002F508D0E03250
:0B09CF00EF1FAC0670011E4C70F622FA
:1008D50020B3147F647E001209CF20B302B28C20AE
:1008E500B30512088C80F820B2197F647E001209C6
:1008F500CF20B207E4F50AF509F50820B20512087C
:040905008C80F822C8
:0B09DA001209BF12088C1208D580F82B
:10080C000209DAE493A3F8E493A34003F68001F21F
:10081C0008DFF48029E493A3F85407240CC8C333ED
:10082C00C4540F4420C8834004F456800146F6DFBC
:10083C00E4800B01020408102040809009E5E47E5E
:10084C00019360BCA3FF543F30E509541FFEE493B1
:10085C00A360010ECF54C025E060A840B8E493A378
:10086C00FAE493A3F8E493A3C8C582C8CAC583CAA3
:10087C00F0A3C8C582C8CAC583CADFE9DEE780BE5B
:0109EE000008
:00000001FF
