:03000000020800F3
:0C080000787FE4F6D8FD75810A020847F5
:09092200010900010800010A00AE
:09092C00E5A0541F4480F5A0224F
:0E08FC00758901758CFF758A9BD2A9D2AF2237
:03000B000208D810
:1008D800C0E0C0D0758CFF758A9B0509E509B5088D
:1008E80004D280800AE50964647004C280F509D0E6
:0408F800D0D0E0324A
:0B091700EF1FAC0670011E4C70F622B2
:10088C0020B0487F647E0012091720B03EE50A14A0
:10089C00601614601B14602024037023C280D28C59
:1008AC0075080A750A018017750832750A02800FDF
:1008BC0075085A750A038007D280C28CE4F50A20A9
:0C08CC00B0097FF47E0112091780F422AD
:0D090A0012092CD2801208FC12088C80FB10
:10080C0002090AE493A3F8E493A34003F68001F2EF
:10081C0008DFF48029E493A3F85407240CC8C333ED
:10082C00C4540F4420C8834004F456800146F6DFBC
:10083C00E4800B0102040810204080900922E47E21
:10084C00019360BCA3FF543F30E509541FFEE493B1
:10085C00A360010ECF54C025E060A840B8E493A378
:10086C00FAE493A3F8E493A3C8C582C8CAC583CAA3
:10087C00F0A3C8C582C8CAC583CADFE9DEE780BE5B
:01092B0000CB
:00000001FF
