:03000000020BC42C
:0C0BC400787FE4F6D8FD758120020C0B50
:100D2A000A08C0F9A4B0999282F880900A1440790E
:0C0D3A0024301912027800100212000090
:0A0D6200F8E6FD120D477F647E00E5
:0B0D6C00EF1FAC0670011E4C70F62259
:100D470090E00074FFF0A8077401088002C333D84D
:0B0D5700FC90C000F090E000EDF022E6
:0C0DA70090C00074FFF090E000EFF0221C
:100C5000AE12AF137C007D0A120ACF74082D7F07F5
:100C6000120D62AE12AF137C007D64120ACF7E00BB
:100C70007F0ACFCDCFCECCCE120ACF74142F7F06F1
:100C8000120D62AE12AF137C007D64120ACF74089D
:100C90002FF8E6FD7F05120D657DFF7F04120D65BF
:100CA0007F03120D657F02120D657F01120D65E451
:090CB000FF120D657FFF020DA784
:100D7700AB07AA06EB1BAE0270011A4E6005120CF8
:040D87005080F12285
:100B3200120CE07FCC120CB97F44120CB97FE87E14
:100B420003120D77120CE07FCC120CB97FBE120C8F
:100B5200B9120D078F1E120D077512008F13E513C0
:100B6200F512E51EF513E51254F87055E512C4F8B6
:100B720054F0C868F512E513C4540F48F513AE12C9
:100B8200FF7C007D0A120ABD8E128F13E51E540FE0
:100B9200FCE4120A08E4FBFA7920783F1208F8C054
:100BA20004C005C006C007AC12AD13E4120A03D09C
:100BB20003D002D001D000120807120A3C8E128F15
:010BC200131F
:010BC300220F
:0D0D9A00901F40E4F0120B32120C5080F854
:040D8B007F327E0035
:0B0D8F00EF1FAC0670011E4C70F62236
:020CB900AD0785
:100CBB00E4FBEBC39408748094805012C294ED1340
:100CCB009294120D8BD294EDC313FD0B80E47F3203
:050CDB007E00020D8FF8
:100D0700E4FBEBC39408748094805014C294EDC341
:100D170013FDD294309403430580120D8B0B80E2B0
:020D2700AF0516
:010D290022A7
:100CE000C200D2947F787E00120D8FC2947F207E46
:100CF00003120D8FD2947F647E00120D8FA2949206
:060D000000120D8BA200A1
:010D060022CA
:10080000020AA8E86480F8E933E83360110460F074
:10081000ED33EC337009E8FCE9FDEAFEEBFF22045E
:1008200060DED3EB9FEA9EE99DE8C2E78CF0C2F759
:1008300095F0400CE8CCF8E9CDF9EACEFAEBCFFB25
:10084000120A7385D0F05804700320D5B3E8047001
:10085000075002B2D5020AB292D5EC0460F7E4CC9C
:10086000C0E0C398F8603B94186008400DD0E0FBEE
:10087000020A8AE4FBFAC9FC8028E830E406E4C9ED
:10088000FBE4CAFCE830E305E4C9CACBFCE8540742
:100890006010F8C3E913F9EA13FAEB13FBEC13FC4D
:1008A000D8F130F52FC3E49CFCEF9BFFEE9AFEEDF0
:1008B00099FDD0E0FBEF4E4D4C701222DB03020A93
:1008C000AFEC2CFCEF33FFEE33FEED33FDED30E704
:1008D000EB020A8AEF2BFFEE3AFEED39FDD0E0FB8A
:1008E00050130BBB0003020AB2ED13FDEE13FEEF33
:0808F00013FFEC13FC020A8A5D
:1008F800EC4D6011E8497017ED33EC3304600DE4FA
:10090800FCFFFEFD22E933E8330470F8020AA8125E
:100918000A7358046009E4CC24815006285009025F
:100928000AB2284003020AAFC0E0EB4A7044B9801B
:1009380006D0E0FB020A9EEF4E701CBD8008EBFF5C
:10094800EAFEE9FD80EBE98DF0A4FEE5F00209E19D
:10095800E9CDF9EAFEEBFFEF89F0A4FCE5F0CE89DA
:10096800F0A42EFFE435F0CD89F0A42DFEE435F097
:100978008067EF4E7005BD80D780C3EF8BF0A4ACC5
:10098800F0EE8BF0A42CFCE435F0F8EF8AF0A42C00
:10099800E5F038FCE433CB8DF0A42CFCE5F03BF813
:1009A800EE8AF0A42CFCE5F038F8E433CF89F0A403
:1009B8002CFCE5F038CF3400CE89F0A42FFFE5F009
:1009C8003EFEE433C98DF0A42EFEE5F039CD8AF061
:1009D800A42FFFE5F03EFEE43DFD33D0E0FB5007D9
:1009E8000BBB000F020AB2EC2CFCEF33FFEE33FE18
:0609F800ED33FD020A8A46
:1009FE0075F020800E75F010800575F0087D007E74
:100A0E00007F003392D530D503120B24EC33401007
:100A1E00EF33FFEE33FEED33FDEC33FCD5F0ED227C
:0E0A2E00E5F0247EA2D513CC92E7CDCEFF22B8
:100A3C00EDD2E7CD33EC3392D524814006E4FFFEB2
:100A4C00FDFC22FCE4CFCECDCC24E0501174FF8011
:100A5C00EDC3CC13CCCD13CDCE13CECF13CF0470AE
:070A6C00F030D5DE020B247F
:100A7300E9D2E7C933E833F892D5EDD2E7CD33ECC9
:070A830033FC5002B2D52242
:100A8A00EC30E7100FBF000C0EBE00080DBD0004CD
:100A9A000BEB6014A2D5EB13FCED92E7FD2274FF79
:100AAA00FCFDFEFF22E480F8A2D574FF13FC7D80D2
:030ABA00E480EFE6
:100BD000020D9AE493A3F8E493A34003F68001F294
:100BE00008DFF48029E493A3F85407240CC8C33326
:100BF000C4540F4420C8834004F456800146F6DFF5
:100C0000E4800B0102040810204080900D2AE47E4D
:100C1000019360BCA3FF543F30E509541FFEE493E9
:100C2000A360010ECF54C025E060A840B8E493A3B0
:100C3000FAE493A3F8E493A3C8C582C8CAC583CADB
:100C4000F0A3C8C582C8CAC583CADFE9DEE780BE93
:010D460000AC
:100ABD00EF8DF0A4A8F0CF8CF0A428CE8DF0A42E4D
:020ACD00FE2207
:100ACF00BC000BBE0029EF8DF084FFADF022E4CC0B
:100ADF00F875F008EF2FFFEE33FEEC33FCEE9DECD4
:100AEF00984005FCEE9DFE0FD5F0E9E4CEFD22ED1A
:100AFF00F8F5F0EE8420D21CFEADF075F008EF2F64
:100B0F00FFED33FD4007985006D5F0F222C398FD54
:050B1F000FD5F0EA22F1
:0E0B2400C3E49FFFE49EFEE49DFDE49CFC22E2
:00000001FF
