:030000000208787B
:0C087800787FE4F6D8FD75810702088443
:10086300EF1FAC0670011E4C70F6EF1FAC06700153
:050873001E4C70F6228E
:10080000D2A5C2A6C2A7E4FDEDC394037480948070
:100810005017E4F5807F407E9C1208637F507EC3B2
:100820001208637580FF0D80DF7D01EDD39408749D
:100830008094805010A80574FF088002C333D8FC50
:10084000F5800D80E67D01EDD3940874809480508E
:1008500011A80574FF088002C333D8FCF4F5800D9D
:0208600080E531
:010862002273
:0508840012080080FBDA
:00000001FF
