:030000000208AA49
:0C08AA00787FE4F6D8FD7581070208B6DF
:100833007F607EEA12085A7F607EEA12085A7F6060
:100843007EEA12085A7F607EEA12085A7F607EEAC7
:0708530012085A7F607EEAE3
:0B085A00EF1FAC0670011E4C70F62270
:10080000EF24FB601314601914601F24037023E5A8
:10081000A0541F4480F5A022E5A0541F44A0F5A0D9
:1008200022E5A0541F44C0F5A022E5A0541F44E0D7
:03083000F5A0220E
:100887007F04120800C280120856D2807F407E9CE7
:0308970002085AFA
:0708BE00D288D2A8D2AF22BC
:030003000208658B
:10086500C0E0C0D075D000C004C006C007C2871262
:100875000833120833D287D007D006D004D0D0D0A1
:02088500E0325F
:10089A007F041208007580FF0F120800E4F5802219
:0808B6001208BE12088780FB46
:00000001FF
