:03000000020800F3
:0C080000787FE4F6D8FD758108020847F7
:0308D80001080014
:0908C700E5A0541F4480F5A022B5
:1008B700758901758C3C758AAFD2A9D2AFD28C22CB
:03000B0002088C5C
:10088C00C0E0C0F0C0D0758C3C758AAF0508E50897
:10089C0075F00A84E5F07002B280E50864647004B7
:0B08AC00B287F508D0D0D0F0D0E032C9
:0808D0001208C71208B780FEF0
:10080C000208D0E493A3F8E493A34003F68001F22A
:10081C0008DFF48029E493A3F85407240CC8C333ED
:10082C00C4540F4420C8834004F456800146F6DFBC
:10083C00E4800B01020408102040809008D8E47E6C
:10084C00019360BCA3FF543F30E509541FFEE493B1
:10085C00A360010ECF54C025E060A840B8E493A378
:10086C00FAE493A3F8E493A3C8C582C8CAC583CAA3
:10087C00F0A3C8C582C8CAC583CADFE9DEE780BE5B
:0108DB00001C
:00000001FF
