:030000000208DA19
:0C08DA00787FE4F6D8FD75810B0209213F
:100A6300C0F9A4B0999282F880908880C6C0868E1F
:020A7300BF7F43
:080A8500020A04D2020800017C
:1009BB00EF24FB601314601914601F24037023E5EC
:1009CB00A0541F4480F5A022E5A0541F44A0F5A01D
:1009DB0022E5A0541F44C0F5A022E5A0541F44E01B
:0309EB00F5A02252
:100A1C00AE077F061209BBAF05A807740108800258
:0E0A2C00C333D8FCF5807F071209BB8E8022F1
:0A0A3A00E493FF120A1C7F587E02AD
:0B0A4400EF1FAC0670011E4C70F62284
:10080000AE0AAF0B7C037DE812096674632FF58294
:10081000740A3EF583E493FFE4FD120A3DAE0AAF8D
:100820000B7C037DE81209667E007F64CFCDCFCEBE
:10083000CCCE12096674632FF582740A3EF5837D6F
:1008400001120A3AAE0AAF0B7C007D641209667E83
:10085000007F0ACFCDCFCECCCE12096674632FF5C0
:1008600082740A3EF5837D02120A3AAE0AAF0B7C0F
:10087000007D0A12096674632DF582740A3CF583C3
:10088000E493FF7D03120A3D900A73E493FF0D1277
:100890000A3DE493FF0D120A3DAE08AF097C007DCE
:1008A0000A12096674632FF582740A3EF583E49395
:1008B000FF7D06120A3DAE08AF097C007D0A1209D1
:1008C0006674632DF582740A3CF583E493FF7D071B
:0A08D000120A1C7F587E02020A443F
:100A4F00AB07AA06EB1BAE0270011A4E6005120827
:040A5F000080F12200
:100A75007F041209BB7580FF0F1209BBE4F58022C4
:1009EE00120A751208000509E50970020508D3946C
:1009FE000CE5089400400E750800750901050BE51D
:0E0A0E000B7002050A7F647E00120A4F80D82A
:1008E6000209EEE493A3F8E493A34003F68001F231
:1008F60008DFF48029E493A3F85407240CC8C33313
:10090600C4540F4420C8834004F456800146F6DFE1
:10091600E4800B0102040810204080900A85E47EE2
:10092600019360BCA3FF543F30E509541FFEE493D6
:10093600A360010ECF54C025E060A840B8E493A39D
:10094600FAE493A3F8E493A3C8C582C8CAC583CAC8
:10095600F0A3C8C582C8CAC583CADFE9DEE780BE80
:010A8D000068
:10096600BC000BBE0029EF8DF084FFADF022E4CC75
:10097600F875F008EF2FFFEE33FEEC33FCEE9DEC3E
:10098600984005FCEE9DFE0FD5F0E9E4CEFD22ED84
:10099600F8F5F0EE8420D21CFEADF075F008EF2FCE
:1009A600FFED33FD4007985006D5F0F222C398FDBF
:0509B6000FD5F0EA225C
:00000001FF
