:030000000208DD16
:0C08DD00787FE4F6D8FD7581070208E979
:1008B8007F041208F87F407E9C1208C87F507EC3D0
:1008C800EF1FAC0670011E4C70F6EF1FAC067001EE
:0508D8001E4C70F62229
:10088D00EF24FB60111460151460192403701BD242
:10089D00A7C2A6C2A522D2A7C2A6D2A522D2A7D2EE
:0B08AD00A6C2A522D2A7D2A6D2A52287
:0608F80012088D8D802224
:100800007F0412088DE4FBEBC39403748094805042
:100810000DE4FD1208B87DFF1208B80B80E97B01DA
:10082000EBD3940874809480501BA80374FF088055
:1008300002C333D8FCFD7F041208F87F607EEA1201
:1008400008C80B80DB7D107F051208BAE4FD7F0528
:100850001208F81F12088D7B01EBD3940874809462
:1008600080501CA80374FF088002C333D8FCF4FD39
:100870007F041208F87F607EEA1208C80B80DA7DD8
:0D088000407F051208BAE4FD7F050208F86C
:0708F100E4FD7F050208F899
:0808E9001208F112080080FB67
:00000001FF
