:030000000208FCF7
:0C08FC00787FE4F6D8FD75810702091131
:1008DA00C0F9A4B0999282F880908880C6C0868EAA
:0208EA00BF7FCE
:10089D00EF1FAC0670011E4C70F6EF1FAC06700119
:0F08AD001E4C70F6EF1FAC0670011E4C70F62249
:0708630012086A7580FF0F07
:10086A00EF24FB601314601914601F24037023E53E
:10087A00A0541F4480F5A022E5A0541F44A0F5A06F
:10088A0022E5A0541F44C0F5A022E5A0541F44E06D
:03089A00F5A022A4
:1008EC007F0612086A7580010F12086A75808222D1
:1008BC00AE077F0612086AAF05A80774010880020C
:0E08CC00C333D8FCF5807F0712086A8E8022A5
:10080000E4FAEAC3940874809480502DE4FBEBC3AF
:10081000940A74809480501EEB9008DA93FFEAFDEE
:100820007C001208BC7F607EEA12089D7F407E9C9F
:1008300012089D0B80D80A80C9E4FBEBC3941074A6
:10084000809480501D7F06120863EB9008DA93F5C0
:10085000807F407E9C12089D7F607EEA12089D0B7F
:0208600080D93D
:010862002273
:090908007F04120863E4F580226B
:0809110012090812080080FB26
:00000001FF
